:100000000C94F3010C94171B0C9410020C94100226
:100010000C9410020C9410020C9410020C94100218
:100020000C9410020C9410020C945F220C94332355
:100030000C943A1D0C9410020C9410020C941002B3
:100040000C9410020C9410020C9410020C941002E8
:100050000C9410020C94DD1D0C9410020C941002F0
:100060000C9410020C9410020C9410020C941002C8
:100070000C9410020C9410020C9410020C941002B8
:100080000C9410020C9410020C9410020C941002A8
:100090000C9410020C9410020C9410020C94100298
:1000A0000C9410020C9410020C94100214001A000C
:1000B000090013000A0004001500160017000700CD
:1000C0001D001B0006001900050000002D002E0079
:1000D00029622A61000035002B00045101583300C9
:1000E0001C0018000F000D0012000C000800110089
:1000F0000B0034003700360010000E000000300006
:100100002F0028622C640000E3004C0003580251C9
:10011000A9004A0052004D004B00A80050005100B9
:100120004F004E00AA000000000000000000000088
:10013000F200F100010001000000000000000100D9
:10014000010000000000ED00000000000000F000D1
:10015000EE00EF00000031023802310038000000EC
:10016000000000000000010001000000000000008D
:10017000010001001E001F002000210022002E02AD
:100180002E00260227022F021E021F022002210239
:100190002202000000000000010001000000010038
:1001A0000100010001002700260025002400230093
:1001B0003300330230002F003002270226022502CE
:1001C00024022302000000000000010001000000E2
:1001D00001000100010001002B0014001A000800BA
:1001E0001500E1000400160007000900E0001D00F2
:1001F0001B0006001900000029002800E0002C0068
:100200000000010001000100010023026100600004
:100210005F00670055005E005D005C005400570001
:100220005B005A00590056000000630062000100A4
:1002300001000000010001000100010000000000B9
:1002400000000000005C3A003B003C003D003E0026
:1002500000000000000000003F000000000000005F
:10026000000000000000000000000100010000008C
:100270000000000000000000450044004300420070
:1002800041000000000000000000400000000000ED
:10029000000000000000000000000000010001005C
:1002A0002803440061006300740079006C002000A2
:1002B0004D0061006E00750066006F0072006D00F9
:1002C000200034007800350000000E037400730035
:1002D00068006F0072007400000004030904090242
:1002E0003B00020100A0FA09040000010301010023
:1002F00009211101000122400007058103080001C6
:10030000090401000103000000092111010001227C
:100310007B0007058203200001120100020000009B
:10032000084D44353401000102000105010902A114
:100330000185020901A100050919012908150025F7
:1003400001950875018102050109300931158125E2
:100350007F95027508810609381581257F950175FD
:10036000088106050C0A38021581257F950175085C
:100370008106C0C005010980A101850319012AB7C2
:1003800000150126B700950175108100C0050C0904
:1003900001A101850419012AA002150126A00295D8
:1003A0000175108100C005010906A101050719E0CA
:1003B00029E7150025019508750181029501750849
:1003C00081010507190029FF150026FF0095067514
:1003D0000881000508190129059505750191029507
:1003E0000175039101C011241FBECFEFDAE0DEBF1B
:1003F000CDBF11E0A0E0B1E0E2E8FBE402C005906F
:100400000D92AC39B107D9F722E0ACE9B1E001C0F7
:100410001D92A73AB207E1F70E945B140C94A9253C
:100420000C94000081E0089581E008950E94140278
:10043000089508950E9419020895A5E0B0E0E3E24E
:10044000F2E00C94152549835A8330919F018981EC
:100450009A81311119C0662399F0222389F00E94F4
:100460009E08182F682F89819A810E947A086981D5
:100470007A81812F0E944D0F2596E3E00C9431255F
:100480000E948C08182FF3CF0E949E0869817A8100
:10049000F1CFFC01262F40815181628173818481DB
:1004A0000E941D02089581E00895CF93DF93EC012F
:1004B00060E00E944902BE010E941A02DF91CF91C2
:1004C00008950E94B01008950E94B41008950895F0
:1004D0000E94C9060E9467022FEF84E39CE021502E
:1004E00080409040E1F700C0000008950E9468023B
:1004F0000E94011E08950E9468020E94121E089523
:100500000F931F93CF93DF938C0161E00E94490208
:10051000EC01B8010E941602811106C080E0DF9153
:10052000CF911F910F910895B801CE010E94271A13
:100530008823A1F3B801CE010E940417882371F328
:10054000B801CE010E949919882341F3F8018281F4
:10055000882361F0CB35FDE5DF0701F158F4C115C3
:10056000ECE5DE0791F0CF3DDC4591F0C8010E943B
:100570001202D5CFCD358DE5D80769F090F0C83A95
:10058000DD45A1F70E947B02C9CF0E947602C6CF4B
:100590000E94950DF7CF0E94D60CE8CF0E94E00C88
:1005A000E5CF0E94E40CE2CF0E94171D0E94F102E9
:1005B00008950E94F5020E941C1D089508950E944E
:1005C000DE02089581E008950E94E20208950895F0
:1005D000CF93C82F0E94DF028C2F0E94E402CF919C
:1005E000089580E00E94E80208950E943D1C0E9448
:1005F000E80208950E943D1C90919E01981721F0F9
:1006000080939E010E94E8020895ABE0B0E0EBE029
:10061000F3E00C9416254F83588769877A878B8778
:1006200061110E94210C1E821D8285E0FE01379619
:10063000DE01119601900D928A95E1F78C819D81E2
:10064000892B61F449815A816B817C818D819E81E6
:100650000E944A0B2B96E2E00C94322589819A8104
:1006600089238F3F79F3CE0101960E9453028111B5
:10067000E9CFF0CFFC01808191810E94D8080895D4
:10068000CF93C82F8823C9F08238C9F40E943D1C3B
:1006900081FD13C089E30E94D90B0E94420C2FEF09
:1006A00081EE94E0215080409040E1F700C00000CE
:1006B00089E30E94E10B0E94420CCF910895833898
:1006C000A1F40E943D1C80FDF8CF83E50E94D90B68
:1006D0000E94420C2FEF81EE94E021508040904028
:1006E000E1F700C0000083E5E4CF8438A1F40E9464
:1006F0003D1C82FDE2CF87E40E94D90B0E94420C90
:100700002FEF81EE94E0215080409040E1F700C04F
:10071000000087E4CECF8CEF8C0F813AB8F48C2F99
:100720000E94DD188111C9CF6C2F8091000190913A
:1007300001010E94A81C882329F08C2F0E94E10B44
:100740000E94420C8C2F0E94D90BB5CF80E28C0FF7
:10075000883048F4C77081E001C0880FCA95EAF775
:100760000E94040CA8CFEBE5EC0FE33040F4F0E07E
:10077000E45AFE4F808190E00E946A1C9ECFE8E51B
:10078000EC0FE73150F4F0E0EE0FFF1FE25DFE4F9B
:10079000808191810E94801C90CFCD3E08F48DCF46
:1007A0008C2F0E94DF140E94B21587CF882309F492
:1007B00055C0823879F40E943D1C81FF4FC089E307
:1007C0000E94D90B0E94420C89E30E94E10B0E9417
:1007D000420C0895833859F40E943D1C80FF3EC0AE
:1007E00083E50E94D90B0E94420C83E5EECF84384A
:1007F00059F40E943D1C82FF31C087E40E94D90B4E
:100800000E94420C87E4E1CF9CEF980F913AE8F206
:1008100090E2980F983050F4877091E001C0990FE2
:100820008A95EAF7892F0E940A0CD1CF9BE5980F91
:10083000933028F490E080E00E946A1C089598E5C7
:10084000980F973128F490E080E00E94801C089572
:100850008D3E20F00E9439150E94B21508951F9315
:10086000CF93DF93182FEB010E944003209739F4B8
:10087000812F0E94D603DF91CF911F9108958FE9B8
:100880009FE00197F1F700C000002197EFCF70E0E3
:1008900060E0893311F460E570E00E942F04089550
:1008A000882321F00E94040C0E94420C08958823A2
:1008B00021F00E940A0C0E94420C0895B0E0A0E0D2
:1008C000E4E6F4E00C940F256C01D62FC72FFC0151
:1008D0001281F580F2949FE0F9220E94FA0BE82E33
:1008E0008823B9F0E12E1123A1F08C2F807F803472
:1008F00021F080E28D0F8830D0F080917F0282FF5E
:1009000016C082E00E94A50C0E94FA0B91E0E82E2E
:10091000E926BC2EB2948FE0B822FBE0FB1508F468
:1009200068C0EB2DF0E0E555FA4D0C940025E12C64
:10093000F0CF0C2F0F70C07F11F00295007F1123B4
:1009400099F0002359F080E28D0F883010F0D1111A
:1009500007C0802F0E94040C0E94420C8D2F41C0C2
:10096000802F0E94140CF8CF8D2F0E94D6030023F5
:1009700009F43FC080E28D0F883010F0D11104C01F
:10098000802F0E940A0C03C0802F0E941A0C0E9424
:10099000420C2FC00C2F0F70C07FC03211F0029597
:1009A000007FDD2381F0D13009F463C0112309F405
:1009B0006DC0FF2009F463C0F601858180FFCECFB2
:1009C0008F7085835CC080917F0282FD33C01123CC
:1009D00059F0002329F0802F0E94040C0E94420C41
:1009E00080E00E94400305C080E00E94D603011110
:1009F000C7CFEB2DE850FF0B349720F40E943D1C2D
:100A00000E94E802EE2089F00E94F60B80FD0DC0E6
:100A1000F60112820E94F00B0E948207C6010E941A
:100A200089060E94F00B0E94A407CDB7DEB7E9E06B
:100A30000C942B25112389F0F11006C00E94240C80
:100A4000802B0E945004D5CF21E0F212F7CF0E94F4
:100A5000240C802B0E942B0CCCCFF11006C00E94DE
:100A6000380C802F0E945704C4CF31E0F31609F2EE
:100A7000F6CF112331F085E08F1508F4BACF802F1F
:100A8000E0CF94E09F1508F4B4CFEBCFFF2049F3FB
:100A9000D93349F4FFEF27EE33E0F15020403040E6
:100AA000E1F700C000008D2F0E94D603A2CF8C2F4B
:100AB00086958695837069F0813009F09ACF8D2FE5
:100AC0009C2F9370111102C090E080E00E94801C66
:100AD00090CF8D2F9C2F9370111102C090E080E079
:100AE0000E946A1C86CF8D2F112329F00E94DF14EB
:100AF0000E94B2157ECF0E943915FACF8C2F8370D9
:100B000009F041C0111175CF4D2F429546954770A0
:100B1000440F440F0D2F0F7010E030E020E0042E42
:100B200004C0000F111F221F331F0A94D2F760E088
:100B300070E0CB01D4FF0FC06FE070E080E090E088
:100B400004C0660F771F881F991F4A95D2F76095DA
:100B5000709580959095C695C695C370602B712B46
:100B6000822B932BC23049F058F4C13019F00E9407
:100B70002D073FCF0E941A073CCF0E94400739CF74
:100B80000E94170736CF8695112311F08C2F8170A4
:100B9000882309F42ECF4D2F429546954770440F78
:100BA000440F0D2F0F7010E030E020E0042E04C041
:100BB000000F111F221F331F0A94D2F760E070E06C
:100BC000CB01D4FF0FC06FE070E080E090E004C084
:100BD000660F771F881F991F4A95D2F76095709509
:100BE00080959095C695C695C370602B712B822B0E
:100BF000932BC23049F058F4C13019F00E94FD0720
:100C0000F8CE0E94EA07F5CE0E941008F2CE0E94AC
:100C10005907EFCECF70112329F08C2F0E94820745
:100C20008D2F0FCF8D2F0E9457048C2F0E94A40769
:100C3000E0CED23F51F160F4D03FB9F0D13F81F026
:100C4000112309F449C0F11089CE8C2F8F7121C076
:100C5000D33F11F1D43FA1F780917F0282FD26C0DE
:100C60008C2F8F71112311F314C0112349F084E0EC
:100C70008F1508F4BECE8C2F8F710E94C807B9CE95
:100C800095E09F1508F4B5CEF6CF8C2F8F7111111A
:100C9000CDCF0E948207ADCE112329F08C2F8F710A
:100CA0000E946C07A6CE0E946607A3CE112349F0CE
:100CB000CF718C2F0E94820763E08C2F0E94870CDB
:100CC00098CE81E00E94A50CE1E0EF1508F091CEEE
:100CD00082E00E94A50C8DCEF110DACE8C2F8F71A0
:100CE000A5CF0F931F93CF93DF93EC016881798198
:100CF0008A810E94E3088C010E9423080E94160743
:100D0000B801CE010E945E04DF91CF911F910F9137
:100D10000895CF93DF93EC018B819C81892B29F07F
:100D20008881998189238F3F51F4DF91CF91089574
:100D3000CE010E947106CE010E945502F6CFCE016F
:100D40000E9480028111F4CF0E94FA0B882369F37C
:100D50008A81882351F380917F0282FFE6CF82E06F
:100D60000E94A50CE2CF90E080E00E946A1C90E017
:100D700080E00E94801C0E94210C0E94420C0E9474
:100D8000CE150E94B21508950E94E90B0E94B30689
:100D900008950E94110C0E94C406089592959F70B8
:100DA000963091F058F4925F9F70923058F4803FE3
:100DB00019F030F4883E30F481E008959A5FF4CF62
:100DC000843FD1F380E00895883EB0F3813FD1F7AE
:100DD000F3CFFC01808191810E94D8080E94CE0649
:100DE0000895A5E0B0E0E7EFF6E00C94162525960F
:100DF000E2E00C943225A6E0B0E0E1E0F7E00C94EC
:100E000016252696E2E00C94322508950E940507E7
:100E100008950E9406076093C7017093C8018093EC
:100E2000C9019093CA010E94B306089508950E94D3
:100E3000090708950F931F930091C7011091C801EE
:100E40002091C9013091CA01602B712B822B932B09
:100E50000E9409071F910F9108950F931F9300910E
:100E6000C7011091C8012091C9013091CA016023C6
:100E70007123822393230E9409071F910F910895E4
:100E80000F931F930091C7011091C8012091C901D0
:100E90003091CA0160277127822793270E94090792
:100EA0001F910F9108950E94050708950E9453070E
:100EB00008950E9456076093C3017093C401809304
:100EC000C5019093C6010E94B306089560E070E0EA
:100ED000CB010E94590708950F931F9341E050E002
:100EE00060E070E08A019B0104C0000F111F221F07
:100EF000331F8A95D2F7C901B8010E9459071F9183
:100F00000F9108950F931F9341E050E060E070E06F
:100F100004C0440F551F661F771F8A95D2F7809132
:100F2000C3019091C401A091C501B091C6018A018D
:100F30009B01082B192B2A2B3B2BC901B8010E94BE
:100F400059071F910F9108950F931F9341E050E0AF
:100F500060E070E004C0440F551F661F771F8A953C
:100F6000D2F7CB01BA01609570958095909500916C
:100F7000C3011091C4012091C5013091C6016023C5
:100F80007123822393230E9459071F910F91089583
:100F90000F931F9341E050E060E070E004C0440F05
:100FA000551F661F771F8A95D2F78091C3019091D4
:100FB000C401A091C501B091C6018A019B01082717
:100FC00019272A273B27C901B8010E9459071F91F9
:100FD0000F9108950F931F930091C3011091C401C5
:100FE0002091C5013091C601602B712B822B932B70
:100FF0000E9459071F910F9108950F931F9300911D
:10100000C3011091C4012091C5013091C601602334
:101010007123822393230E9459071F910F910895F2
:101020000F931F930091C3011091C4012091C5013A
:101030003091C60160277127822793270E945907A4
:101040001F910F9108950895262F277091E001C0F8
:10105000990F2A95EAF723E0769567952A95E1F7A7
:1010600025E0269FF001279FF00D1124E40FF51FC6
:1010700050E040E0682F70E08191DF0111979B0103
:10108000042E02C0369527950A94E2F72170219527
:101090002827292328272C934F5F5F4F4530510580
:1010A00059F70895A82FA77023E0969587952A955C
:1010B000E1F725E0289FF001299FF00D1124E60FAC
:1010C000F71F50E040E080E0219130E00A2E02C09E
:1010D000369527950A94E2F721703327042E01C034
:1010E000220F0A94EAF7822B4F5F5F4F453051057C
:1010F00059F70895262F9A3070F4853060F4682FE0
:1011000070E085E0989F600D711D112440EA51E068
:10111000822F0E9424080895292F9A3068F4853080
:1011200058F490E060EA71E035E0239F800D911D56
:1011300011240E945208089580E00895B0E0A0E0D4
:10114000E4EAF8E00C940F258C01C090C301D09024
:10115000C401E090C501F090C6018091C701909153
:10116000C801A091C901B091CA01C82AD92AEA2AA6
:10117000FB2ACFE1D0E0BC2ED701C6010C2E04C063
:10118000B695A795979587950A94D2F780FD09C0E3
:10119000219788F7B12C8B2DCDB7DEB7E9E00C9401
:1011A0002B25B8018C2F0E94680F019789F3F3CF8C
:1011B000CF93DF93EC010E949E08BE010E94680F4E
:1011C000DF91CF9108951F93CF93DF93EB0190911F
:1011D0009F01992339F0CB010E94D808DF91CF916C
:1011E0001F910895882369F0CB010E949E08182F53
:1011F000682FCE010E947A08BE01812F0E94680FDD
:10120000EDCFCB010E948C08182FF6CF1F93CF9300
:10121000DF93C091CB0116E08091CC018C1304C008
:10122000DF91CF911F910895D0E01C9FF0011D9F89
:10123000F00D1124E353FE4F40815181628173818F
:10124000848195810E94FB062196C770E5CF40916D
:10125000FD015091FE016091FF01709100028091AB
:101260000102909102020E94FB0608952091CB0199
:101270009091CC0156E0291302C080E0089530E03F
:10128000529FF001539FF00D1124E353FE4F7181E3
:10129000761306C07081781303C07281741304C082
:1012A0002F5F3F4F2770E7CF81E008951F93CF93C3
:1012B000DF9380910202807F09F049C08091FF0195
:1012C000882309F444C08091CB01C091CC01609186
:1012D000FD017091FE01A0910002B0910102D62F94
:1012E000D72316E0C81799F190E0109711F0DF3F6F
:1012F00019F401968770F6CF189F9001199F300D51
:101300001124F901E353FE4F41814713F2CF40818D
:101310004613EFCF42814111ECCF438154814A1BE8
:101320005B0B483C510528F7809102028F70806169
:1013300080930202F901EE52FE4F80818F7080612E
:1013400080838DEF91E00E9489060E940609DF915B
:10135000CF911F910895A1E1B0E0E1EBF9E00C9489
:101360000C258C0185E0F801DE011D9601900D929F
:101370008A95E1F7D8011296EC9012978DEFA82E7E
:1013800081E0B82E409100025091010241155105B3
:1013900009F461C19091FD012091FE01892F822302
:1013A0008F3F09F458C1CC901196DC901197139699
:1013B0008D909C901497F090FF01F401E41BF50BC5
:1013C000FF2009F4F6C080910202382F307FE83CFC
:1013D000F10508F0B0C031117BC0FE2CD21217C04D
:1013E0009C1115C0E11013C08F70806180930202C0
:1013F0000E942709C5010E94890680910202D80136
:1014000015968C938F2D6196ECE00C942825811411
:10141000910429F08D2D8C218F3F09F038C180E097
:1014200080FF15C04E2D6D2D8C2D0E94360988230E
:1014300071F08DEF91E00E94890686E0EDEFF1E01A
:10144000DF011D928A95E9F70E9427093FC08114A8
:10145000910429F08D2D8C218F3F09F015C180E07A
:10146000B82FB170AB2E80FF29C04E2D6D2D8C2D65
:101470000E943609B82E811121C0CD86DE868D8569
:101480009E850E94D808292F22952F70223050F077
:10149000243078F49F7051F0F8019581907F31F4F9
:1014A000FB2CB0CF9F7011F08823D1F3805E883081
:1014B000B8F3C8010E948906BA2CF2CFEE2009F4D5
:1014C000A1CF80910202816080930202F12C9ACF19
:1014D000D21205C09C1103C0EE2009F487C0C801D8
:1014E0000E94E906882319F1EE2009F18091020299
:1014F000803270F02091FD013091FE0138872F83FA
:1015000019869B868A868C87CE0107960E9489065B
:1015100086E0F801ADEFB1E001900D928A95E1F718
:101520000E9456090E942709FF24F3946BCFC8013B
:101530000E948906F9CF311112C0782D998A888AC4
:10154000A6016E2D89890E94F1068DEF91E00E941F
:10155000890686E0F50111928A95E9F775CFD212D6
:101560000FC09C110DC0E1100BC015968C93C801E3
:101570000E94890686E0F50111928A95E9F742CF2B
:10158000C8010E94E906882391F2EE2081F2809141
:101590000202803208F4BCCF2091FD013091FE019F
:1015A0003A8329831B829D828C828E83CE01019691
:1015B000ADCFE83CF10508F040C0FE2CEE2009F468
:1015C000B6CFD2122CC09C112AC08091020280FD9D
:1015D0001DC0982F907FD1F015968C931597903F52
:1015E00039F0982F907F905F8F70892B15968C9390
:1015F000C8010E94890686E0F801ADEFB1E00190D4
:101600000D928A95E1F70E942709FCCE86E0F80149
:10161000ADEFB1E001900D928A95E1F7F3CEC801EC
:101620000E94E906811174CF80910202816080934B
:101630000202C8010E948906E5CE782D998A888A1F
:10164000A6016E2D89890E94F10686E0F5011192AE
:101650008A95E9F7D8CFEE2009F469CFC8010E9436
:10166000E906F82E882309F462CF86E0F801ADEF91
:10167000B1E001900D928A95E1F78DEF91E00E9423
:101680003A030E945609BFCF81E08E25E9CE81E062
:101690008E25C6CEACE0B0E0E0E5FBE00C9415256D
:1016A0004F83588769877A878B879C87CE010796F7
:1016B0000E94AB09882369F08A859B85892B39F0C4
:1016C0004F815885842F85238F3F09F06BC016E02A
:1016D0005FC086E0FE013796DE01119601900D9203
:1016E0008A95E1F78A859B85892B89F388859F8177
:1016F00089238F3F61F32091CC0130E0C90101962D
:10170000877099274091CB014817190671F40E9400
:10171000C9061092CC011092CB0186E0EDEFF1E00A
:10172000DF011D928A95E9F7D2CF96E0929FD00112
:10173000939FB00D1124A353BE4FFE01319601902B
:101740000D929A95E1F78093CC010E940609BFCFD4
:10175000819FC001112483539E4F0E94AB098823AF
:10176000E9F0E091CB011E9FF0011124E353FE4FFD
:101770004081518162817381848195810E94FB0641
:101780008091CB0190E00196877099278093CB01DF
:101790008091CB019091CC018913DACF2C96E3E0B4
:1017A0000C94312569857A858B859C850E94FB0682
:1017B0008ECF682F80910001909101010E94DE1C64
:1017C0000895682F80910001909101010E94E11C11
:1017D000089580910001909101010E94E41C0895F8
:1017E00080910B02859585958595089580910B02D2
:1017F0008770089590910B02977081E009F480E062
:10180000089580911602089590911602892B809375
:1018100016020895809590911602982390931602CF
:10182000089510921602089590911502892B8093C5
:1018300015020895809590911502982390931502B2
:10184000089510921502089580910C02089508954C
:101850000E94270C089590917F0292FF08C09091FA
:101860000C02981721F080930C020E94280C089516
:1018700080910C02882329F010920C0280E00E94D3
:10188000280C0895CF93DF93E0910001F0910101BE
:10189000809116028083E0910001F0910101808126
:1018A00090911502892B808390910C02992381F0ED
:1018B000E0910001F09101018081892B808380916A
:1018C0000001909101010E94961C81110E94380C28
:1018D000C0910001D091010148E050E063E072E066
:1018E000CE010E945125892B59F088E0FE01A3E02A
:1018F000B2E001900D928A95E1F7CE010E94511C51
:10190000DF91CF91089508950E94830C08959091DE
:101910007F0292FF11C098E0899F90011124622BF1
:1019200060930B020E94820780910B02859585953A
:1019300085950E94840C08950E9482070895109254
:101940000B0280E00E94840C089590910B02809518
:10195000892380930B02282F277091F4282F082EBB
:10196000000C330B9217130659F090917F0292FFEF
:1019700007C08595859585950E94A4070E949F0CB8
:10198000089590917F0292FB222720F9281769F091
:1019900080FB92F990937F0280917E0290917F026A
:1019A0000E940B0D82E00E94A50C089580917F0299
:1019B00082FB882780F991E089270E94C10C089555
:1019C00081E00E94C10C089580E00E94C10C08953E
:1019D00090E080E00E946F2521E0883E9E4F09F054
:1019E00020E0822F089582E090E00E94672508950C
:1019F00083E090E00E9467250895CF9384E090E013
:101A00000E946725C82F82E290E00E946725982FE8
:101A10008C2FCF910895CF93C92F682F84E090E049
:101A20000E9475256C2F82E290E00E947525CF916F
:101A30000895AB01BC018FE090E00E9487250895D6
:101A4000AB01BC0183E190E00E948725089560E02E
:101A500070E0CB010E94200D089560E070E0CB01A2
:101A60000E94190D0E94270D089568EE7EEF90E008
:101A700080E00E94932560E082E090E00E9475255E
:101A800060E083E090E00E9475251092C7011092FB
:101A9000C8011092C9011092CA0160E084E090E090
:101AA0000E94752564E082E290E00E94752560E066
:101AB00085E090E00E94752560E086E090E00E945D
:101AC00075256FEF87E090E00E94752540E050E0BB
:101AD000BA0188E090E00E94872560E08DE090E008
:101AE0000E94752540E050E0BA0188E190E00E9434
:101AF000872560E087E190E00E94752540E050E096
:101B0000BA018CE190E00E94872570E060E080E2FD
:101B100090E00E94932540E050E0BA0188E190E017
:101B20000E9487250E942D0D08950E94350D08956D
:101B3000682F8EE090E00E94752508950E94A61DF2
:101B400060932502709326028093270290932802C7
:101B500060932102709322028093230290932402C7
:101B60000895089508950E94B20D089508950E9461
:101B7000B60D089587E890E10E94331C0E94B10DD4
:101B80000E94B30D08950E94571208950895089574
:101B90000E94C60D0E94C70D08950E948A100E94DF
:101BA000E70208950E94911D0E9447100E94721240
:101BB0000E94BB110E94CD0D0E94EC160E947C1267
:101BC0000E94B70D0895AAE0B0E0E9EEFDE00C94A4
:101BD0000C250E94DE11982E81110E949E0D87E136
:101BE000A82E82E0B82E10E000E0802E802F0E9408
:101BF000B710E82EF501C1905F01C816B1F18091D0
:101C0000290281FD0E94BD10D12CFF24F394CE2423
:101C10008C2D8F2129F10E94C30D882399F0DE823B
:101C20008F82EF2081E009F480E088870E949A1D6E
:101C30008160782F9A8789874E815F8168858A8540
:101C40000E940503F801E95EFD4F8081F826F082CD
:101C500081E0911001C080E02A96ECE00C942825E8
:101C6000D394FF0CF5E0DF12D3CF0F5F1F4F0A3084
:101C7000110509F0BACF8FEF89838A831B820E94F6
:101C80009A1D8160782F9D838C8349815A816B8155
:101C90008D810E940503DCCF0E94E30D0E94571244
:101CA0000E94F0150E94FA020895CF93DF930E94DC
:101CB0006D0FEC01811521E5920708F042C08115F6
:101CC00030E5930708F09DC0883E910530F5803ED1
:101CD000910508F092C0883A910588F4853A9105FB
:101CE00008F084C08130910509F487C0009709F499
:101CF00084C0049708F081C0D0E0C0E07EC08F3B74
:101D00009105D0F7C85AD0E0CC0FDD1FC15ADE4F85
:101D10000990D881C02DD46470C08115904250F4D0
:101D2000C11581E0D80708F068C0CD3ED10520F389
:101D3000D06563C0C11590E4D907F0F2DF70D06AB6
:101D40005CC0811525E5920700F5811534E5930700
:101D500008F08BC0811543E5940708F073C0C115E6
:101D600082E5D80708F469C0CE018370992721E085
:101D700030E002C0220F331F8A95E2F7C695C69560
:101D800080E2C89FE001112454C0C11599E5D9072C
:101D9000A8F4C11528E5D20708F06CC0C11536E5D6
:101DA000D30708F0A9CF8C2F0E940410C82FD0E0D1
:101DB000DC2FCC27CC27DF71D0621FC0C1154AE5CC
:101DC000D40708F45CC0CE0190568115904208F00B
:101DD00093CF8D2F8F710E94041090E0982F882749
:101DE00088279F719C012C2BE901E6CFC55AD0E0D2
:101DF000C357DE4FC881D0E0D064CE01DF91CF91D0
:101E00000895E4E096958795EA95E1F783702C2F85
:101E100026952695237040E2249F90011124382BAB
:101E20008C2F8370C1E0D0E002C0CC0FDD1F8A95FB
:101E3000E2F7C22BD32BDC68E0CFDC2FCC27C16FBD
:101E4000D06ADBCF8370992721E030E002C0220FF7
:101E5000331F8A95E2F7C695C69590E2C99FE001C7
:101E60001124C22BD32BDA68C8CFD82FCC27C46F4C
:101E7000D06AC3CFDC2FCC27C06FD06ABECF8C2FE7
:101E80008F700E94041034E0D695C7953A95E1F71B
:101E9000CF709C2FEC01D069B0CF972F7A30A8F487
:101EA000653098F470E025E0929F600D711D11245B
:101EB000FB0192E3899FE00DF11D1124EE0FFF1F3E
:101EC000E455FF4F85919491089580E090E0089546
:101ED0000E944D0F0E94550E089582389105B1F170
:101EE000B0F48133910509F475C048F48932910545
:101EF00009F469C08A32910509F473C008958533E5
:101F0000910509F459C08933910501F10895833E83
:101F10009105A9F138F4803E9105F9F0823E9105D2
:101F200049F10895863E9105A9F1873E9105C9F1D1
:101F3000843E910519F520917F0221FF1FC08091F9
:101F40007E0284FD14C087EE90E0089520917E0209
:101F50002370A1F080EE90E0089520917E0220FD94
:101F600047C030917F0230FF09C024FF44C090E099
:101F700080E004C020917E0222FDF7CF08952091D9
:101F80007E0222FD3BC030917F0230FDE3CF24FF73
:101F9000F5CFEDCF20917E0223FFF0CF24FDE7CFD8
:101FA000D2CF20917E0223FD2CC030917F0231FFE1
:101FB000EECF84EE90E0089520917E0225FFDECFE3
:101FC00089E290E0089520917E0225FFD7CF85E336
:101FD00090E0089520917E0226FFD0CF8AE290E023
:101FE000089520917E0226FFC9CF81E390E00895F5
:101FF00089E390E0089583EE90E0089582EE90E00A
:10200000089586EE90E0089590917E0292FF06C0BA
:10201000282F28712830F9F4877F846093FF06C049
:10202000282F28712831F1F4877E846120917F0266
:1020300020FF06C0382F38713830D9F4877F81608F
:1020400021FF06C0282F28712831D1F4877E8161B5
:1020500094FD877E0895282F24712430F9F68B7F14
:102060008860DCCF282F2471243101F78B7E8861B2
:10207000DDCF382F3171313019F78E7F8860E0CF96
:10208000282F2171213121F78E7E8861E1CF1092B6
:102090007A0210927B0210927C0210927D020895C7
:1020A000CF92DF92EF92FF926B017C010E94571258
:1020B00081110EC00E94A61DC61AD70AE80AF90AA5
:1020C000C0927A02D0927B02E0927C02F0927D0272
:1020D000FF90EF90DF90CF9008950F931F930E9491
:1020E0005712882329F00E94A61D1F910F91089571
:1020F0000E94A61D00917A0210917B0220917C0221
:1021000030917D02600F711F821F931FEECF80E020
:10211000089508950E94E80C811102C00E94950D57
:102120000E94F30C809329020E94FD0C90937F0281
:1021300080937E020E9489100E94F80C682F70E044
:1021400090E080E00E9417076091C3017091C40184
:102150008091C5019091C6010E9456070895089587
:102160000E94AF10089508950E94B3100895E82FBB
:10217000F0E0E557FD4F80810895089580EA8A9543
:10218000F1F7089500C008950E94BE1008950895C3
:102190000E94C7100895A5E0B0E0E1EDF0E10C94D5
:1021A00012250E945712F82E60919502882309F497
:1021B00040C085E0E82E8E010F5F1F4FF8018E2D85
:1021C00011928A95E9F7862F90E0B80185579D4FC7
:1021D0000E948A128823B9F08091800290E045E045
:1021E00050E0B80185579D4F0E94512521E0209372
:1021F0002A02892B91F4F12C0E9464028F2D2596DE
:10220000E6E00C942E2580912A028823A1F3F801A0
:102210001192EA94E9F710922A02A0918002B0E0AC
:10222000A557BD4F85E0F80101900D928A95E1F721
:10223000E3CF70E065577D4F8091800290E0855735
:102240009D4F0E9411130E94C810D8CFF894E82F18
:10225000E295EF70F0E031A1282F2F7081E090E03F
:1022600001C0880F2A95EAF7982F9095932391A3A0
:1022700092A1892B82A3789408950F931F93CF93F3
:10228000DF93C5E9D1E089918F3F11F00E942611BB
:1022900081E0CA39D807B9F7C0E9D1E005E911E012
:1022A00089918F3F11F00E9426110C171D07C1F76D
:1022B000DF91CF911F910F910895B0E0A0E0E3E688
:1022C000F1E10C941025EC01D62E062F10E0C80188
:1022D0008B569E4F7C01FC0180818F3F09F444C0E6
:1022E000F894E82FE295EF70F0E091A18F7021E073
:1022F00030E001C0220F8A95EAF7892F822B81A353
:1023000082A12095282322A378940E94C210E0E99C
:10231000F1E031E0C12C21912F3F59F1A22FA2957C
:10232000AF70B0E090968C9190E02F7002C09595C0
:1023300087952A95E2F780FD1CC0832FC82A330FAA
:1023400081E0E539F80739F7F70180818F3F11F017
:102350000E94261161E0C11001C060E08D2D0E9435
:10236000C410C00FD11FC882CDB7DEB7E8E00C940F
:102370002C2580E0E3CF809102018091020195E05D
:10238000811190E09093950285E0891B80938002F3
:102390000E943D118AE0EBE8F2E0DF01982F1D92E8
:1023A0009A95E9F7E1E8F2E0DF011D928A95E9F7F5
:1023B00085E00E9421120E9461020895AAE0B0E027
:1023C000E4EEF1E10C9412258E010F5F1F4F8AE0BD
:1023D000F80111928A95E9F7F12C6F2DC8010E943E
:1023E0005D11F394F5E0FF12F8CF4AE050E0B80138
:1023F00081E892E00E9451257C0121E0892B09F4BB
:1024000020E0E114F10441F08AE0F801A1E8B2E033
:1024100001900D928A95E1F76091950270E0655701
:102420007D4F45E081E892E00E94221281E090E039
:10243000E114F10411F40E94CB102A96E6E00C940A
:102440002E250895FF920F931F93CF93DF93F82EBD
:10245000092F162FD72FC42F222349F081E0809314
:102460002D020E949A1D90932C0280932B02809142
:102470002D028823A1F080912B0290912C020E94C2
:10248000B21D059760F0EF2DF02FA12FBD2FCE0FBD
:10249000DF2FD11DEC17FD0739F410922D02CDB7B7
:1024A000DEB7E5E00C942F2581918D93F3CF8091D9
:1024B0003002811107C00E94DF24882351F081E09F
:1024C0008093300281E090913002913009F080E0F9
:1024D000089582E0809330020E94DA24F3CF0E94B4
:1024E000571208950E946F12809302010E945712A2
:1024F00081110E94C01208950E945712811102C0DA
:102500000E94C312089581E0909131029A3008F040
:1025100080E008950F931F93CF93DF93EC018B011D
:10252000809131028A30B8F4B801CE010E940E13B6
:10253000C82F811122C0809131028F3FB9F40E94CF
:102540009A1D90932F0280932E028C2FDF91CF91B2
:102550001F910F91089580912E0290912F020E9459
:10256000B21D843F914000F7C0E0EFCF8F5F8093B2
:1025700031028A3020F7C1E0E8CF10923102E5CF76
:102580000E94D11A08950E94D41A0895B0E0A0E0E4
:10259000ECECF2E10C9411257901C82F880FDD0BCA
:1025A00041155105A9F0FE0193E0EE0FFF1F9A952A
:1025B000E1F7ED5FFE4F818192818E5C9D4F20811E
:1025C00030E04217530708F49A01A9010E945E25E2
:1025D000CE010E94BD1BD82E8823D1F00115110514
:1025E000B9F083E0CC0FDD1F8A95E1F7FE01ED5FC6
:1025F000FE4F438150E00417150708F4A801CD5F92
:10260000DE4F6C817D816E5C7D4FC7010E945E252F
:102610008D2DCDB7DEB7E7E00C942D250E94001478
:1026200008950E9417140895A4E0B0E0EAE1F3E1F0
:102630000C9414256091490270914A0280914B02DA
:1026400090914C020E94C11D11E064367105810514
:10265000910518F10E946D106E5F7F4F8F4F9F4F55
:1026600069837A838B839C8310E000E030E020E074
:1026700044E050E0BE016F5F7F4F82E00E94C612CF
:10268000182F882351F00E94A61D60934902709371
:102690004A0280934B0290934C02812F2496E4E0EF
:1026A0000C943025B0E0A0E0E8E5F3E10C940E25B1
:1026B0007C015B016A010E94831201E010E0882323
:1026C00011F00AE010E0C1E0D0E0B501C701F60169
:1026D0000995811104C021960C171D072CF4CDB764
:1026E000DEB7EAE00C942A25CC9F9001CD9F300DF7
:1026F000300D112490E080E045E34A95F1F70000A9
:10270000019682179307C1F7E0CFA6E0B0E0EBE8AF
:10271000F3E10C940E257B01C0909A01D0909B01AF
:1027200001E010E09E012A5F3F4F50E040E070E082
:1027300060E080E00E94C612182F882309F448C088
:1027400056018FEFA81AB80A6091450270914602AF
:1027500080914702909148020E94C11D6436710524
:102760008105910568F105E010E09E012F5F3F4F64
:1027700050E040E070E060E081E00E94C612D82E98
:1027800065E070E0C5010E94ED1611E09E8198138E
:1027900010E01D2141F10E94A61D60934502709337
:1027A0004602809347029093480285E0FE013196ED
:1027B000A0E4B2E001900D928A95E1F711E013C018
:1027C00065E070E0C5010E94ED169E818913CBCFB4
:1027D00085E0F6013196DE01119601900D928A9501
:1027E000E1F71111E2CF85E0E0E4F2E0D7010190DA
:1027F0000D928A95E1F7812F2696EAE00C942A251E
:102800000F931F93CF93DF93EC018B0145E853E1C6
:102810000E945213882331F044E153E1B801CE0104
:102820000E945213DF91CF911F910F9108950F9342
:102830001F93CF93DF93C0919A01D0919B01CE015A
:10284000019625E0FB01DC0101900D922A95E1F74C
:1028500065E070E00E94ED1688836E817F81888537
:10286000998500913C0210913D0220913E023091E9
:102870003F02601771078207930751F060933C0293
:1028800070933D0280933E0290933F020E9450104D
:10289000DF91CF911F910F9108950E94B51F0E9463
:1028A000D20D0E94C21F08950E94C71F0E944C0EA5
:1028B0000E94E11F08950E94331D0E949B1F0E94E9
:1028C000BA0D0E944D140E9454140E94C80DFBCFF3
:1028D0008091550280FF0DC060911F0170E0660F6E
:1028E000771F6038710570F56115710569F1862FE4
:1028F000089581FF07C060911F0184E0689FB001C7
:102900001124EFCF60911F0182FD0AC08091540213
:102910008823A9F020911E0160911F01821710F0F9
:1029200088E0ECCF869FC001112433E0880F991F07
:102930003A95E1F7622F70E00E94EC24D2CF68E074
:1029400070E0D5CF8FE7089581E00895809155021A
:1029500080FF0CC060911C0170E0759567957595BE
:1029600067956115710549F1862F089581FF06C0AD
:1029700060911C0170E075956795F3CF60911C0123
:1029800082FD0BC0909153029923A1F060911B012D
:1029900080911C01961738F0682F70E0603871053F
:1029A00000F38FE70895899FC001112470E00E9411
:1029B000EC24F4CF61E070E0D7CF81E008958D3E44
:1029C00031F40E94681481958093590208958E3ED7
:1029D00019F40E946814F8CF8F3E31F40E946814F5
:1029E0008195809358020895803F19F40E946814DD
:1029F000F8CF893F29F40E94A61480935A020895C3
:102A00008A3F21F40E94A6148195F7CF8B3F31F4C1
:102A10000E94A614819580935B0208958C3F19F45F
:102A20000E94A614F8CF9FE0980F983070F4815F51
:102A3000990B21E030E001C0220F8A95EAF78091DE
:102A40005702822B8093570208958D3F31F4809175
:102A5000550281608093550208958E3F21F4809144
:102A600055028260F7CF8F3FB9F78091550284609D
:102A7000F1CF409158028D3E59F48091590287FF61
:102A80000DC01092590241110BC01092540208C09F
:102A90008E3E81F48091590218169CF3442381F0F4
:102AA00080915A0290915B02892B09F05AC01092D2
:102AB000530208958F3E49F447FFF0CF1092580219
:102AC000809159028111ECCFE0CF803F19F41416A8
:102AD000ACF3E4CF90915A02893F29F41916F4F629
:102AE00010925A02DBCF8A3F19F497FFD7CFF8CF65
:102AF00090915B028B3F29F497FFD0CF10925B023D
:102B0000CDCF8C3F19F41916CCF3C8CF9FE0980FA6
:102B1000983090F4815F990B21E030E0B90102C058
:102B2000660F771F8A95E2F7CB0180959091570247
:102B3000892380935702B2CF8D3F31F480915502A3
:102B40008E7F80935502AACF8E3F21F4809155024B
:102B50008D7FF7CF8F3F09F0A1CF809155028B7FFA
:102B6000F0CF08950E949A1D9C0190915802809187
:102B70005902982B21F030935202209351029091E8
:102B80005A0280915B02982B21F0309350022093DF
:102B90004F0286E592E00E945C1C089586E0E6E51F
:102BA000F2E0DF011D928A95E9F71092540210922B
:102BB0005302109255020895FC01828181110EC0CA
:102BC000838181110BC08481811108C091E08581CE
:102BD000811101C090E0892F8170089581E0FCCFC0
:102BE000A6E0B0E0E6EFF5E10C94152586E0E6E519
:102BF000F2E0DE01119601900D928A95E1F71092B4
:102C000058021092590210925A0210925B028B8164
:102C10009C81892B89F080915102909152020E94EF
:102C2000B21DAC01909154029923C9F18091200109
:102C30008417150608F440C08D819E81892B91F080
:102C400080914F02909150020E94B21DAC01909170
:102C50005302992309F471C080911D018417150650
:102C600008F479C0BE016F5F7F4F86E592E00E9455
:102C7000EB1C811105C086E592E00E94DC158111F4
:102C80000E94B21586E0FE013196A6E5B2E0019001
:102C90000D928A95E1F72696E3E00C943125209178
:102CA0004E028AE0289F900111242417350720F650
:102CB0009F5F9093540202C09F3FD1F71B81112365
:102CC00059F00E9468149FEF11160CF491E0899F4F
:102CD000802D1124809358021C81112359F00E94E9
:102CE00068149FEF11160CF491E0899F802D112438
:102CF0008093590230915802332309F49DCF2091DB
:102D00005902222309F498CF45EB3403C001112462
:102D1000992359F09093580245EB24039001112414
:102D2000332339F03093590287CF81E080935802E2
:102D3000F3CF81E0809359027FCF20914D028AE04A
:102D4000289F900111242417350708F08BCF9F5F2F
:102D50009093530202C09F3FD1F71D81112359F078
:102D60000E94A6149FEF11160CF491E0899F802D0C
:102D7000112480935A021E81112359F00E94A61437
:102D80009FEF11160CF491E0899F802D1124809300
:102D90005B0230915A02332309F464CF20915B0225
:102DA000222309F45FCF45EB3403C001112499239A
:102DB00059F090935A0245EB2403900111243323D8
:102DC00039F030935B024ECF81E080935A02F3CF0B
:102DD00081E080935B0246CF0895FC01680F791F64
:102DE0008FEF91E3E617F70709F408952191822701
:102DF00028E030E087FF06C0880F8927215031097D
:102E0000C9F7F0CF880FFACFCF93DF93EC01FB0126
:102E10008281882309F433C1C430FDE5DF07C0F5A2
:102E2000CB3F9CE5D90730F49E0122503C4524312C
:102E30003105B0F50E94FD0C90937F0280937E02D5
:102E4000C1318CE5D80709F4EEC008F069C0C9307B
:102E5000ECE5DE0709F4D5C0C8F5C5308CE5D80728
:102E600009F4C7C000F5C330ECE5DE0709F4B9C0CA
:102E700008F0BBC0C230DC4509F4ADC080917E02D1
:102E800090917F020E940B0D0E94C90680E008C04D
:102E9000C236EDE5DE0771F2C63AFDE5DF0751F215
:102EA000DF91CF91089580917E028062C7309CE5CA
:102EB000D90709F493C080917E028061C830DC4557
:102EC00008F48CC080917E02806488C080917E026C
:102ED0008B7FCD30FCE5DF0709F480C098F480914A
:102EE0007E028E7FCB309CE5D90709F477C08091B4
:102EF0007E028C60CC30DC4508F470C080917E028C
:102F00008D7F6CC080917E028F7ECF30FCE5DF0725
:102F100009F464C008F47BC080917E028F7D5EC09E
:102F2000CE3F9CE5D90709F47AC050F5C531FCE5E0
:102F3000DF0709F486C098F480917E02837FC33155
:102F40009CE5D90709F44AC008F471C00E94C9067B
:102F500090917E02892F97FB87F980583FC0CC3F24
:102F6000FCE5DF0709F449C008F055C080917F02F5
:102F70008160CB3FDC4509F081CF80937F027ECF1B
:102F8000C230EDE5DE0709F468C0A8F4C1158DE58F
:102F9000D80709F452C080917F028360C130DD45BB
:102FA00060F380917F02982F909591708E7F892B8E
:102FB00090FB81F9E2CFC236EDE5DE0709F451C09E
:102FC000C63AFDE5DF0709F453C0C330DD4509F01B
:102FD00055CF80E043C080917E02816080937E0265
:102FE0004DCF80917E028260F9CF80917E02846015
:102FF000F5CF80917E028860F1CF80917F02826060
:10300000BCCF0E94C90680917E028068E7CF809184
:103010007E02877FE3CF80917F028E7FAECF80914B
:103020007F028D7FAACF80917E028F7BD7CF0E94B7
:10303000C90680917E028F77D1CF80917F028C7FED
:103040009CCF80917E0282FB992790F921E0922704
:1030500090FB82F990FB83F9C1CF81E00E94980D2B
:103060000DCF90917E02892F8F7E94FF8061B6CF25
:1030700090917E02892F8E7F90FF8160AFCF81E09B
:103080000FCF0F931F9341E050E060E070E08A01A2
:103090009B0104C0000F111F221F331F8A95D2F716
:1030A000C901B8010E9417070E94C9061F910F911C
:1030B00008958B3109F461C040F58B3071F078F4DC
:1030C000863009F443C020F4853059F180E008953A
:1030D000873009F444C08830C9F781E00895803111
:1030E00009F459C068F48E3089F790912902892F2C
:1030F0008B7F92FF84608093290282FD48C0EDCFD0
:10310000863159F3893149F3E1CF8A32E1F060F435
:103110008732A9F020F48E31C8F28D5111C0893266
:10312000A9F60E947602D9CF833438F48A33F0F5B9
:10313000853329F0883389F2C9CF833439F680E0AA
:103140000E944118CACF0E94950DC7CF80912902D5
:10315000807F8093290281E080935F02089590919F
:103160002902892F8E7F90FF81608093290280FD44
:10317000B4CF817F80932902B0CF90912902892F0B
:103180008D7F91FF82608093290281FFA6CF80917D
:1031900029028160EFCF90912902892F877F93FFC9
:1031A00088608093290283FDF2CF97CF8953C8CFDF
:1031B00080E008950E94D8180895CF93C82F809179
:1031C0005F028130B9F0882331F08230A1F1109292
:1031D0005F0280E00DC00E94010C8232D1F78C2F7B
:1031E0000E94D81881111BC08C2F0E945918817021
:1031F000CF9108950E94010C823289F38C2F0E9496
:10320000DA1881110AC0C43199F060F4CB3029F08A
:10321000C03169F782E080935F0281E0E8CF81E00E
:1032200090E0E5CFC93221F0C833B9F380E0DFCFB9
:1032300010925F02FBCFC93209F43FC0E8F4C431F9
:10324000E1F128F4C73009F45BC081E0D1CF82EE10
:103250008C0F8A30D0F7CD51C0935E02C33009F491
:1032600046C0B0F5C13009F43FC080E291E0C23001
:10327000B1F110925E02E9CFC03509F452C0B8F442
:103280008AE0CF3411F7E0915C02F0915D02309753
:10329000E1F22081082E000C990B820F911D8F3FC7
:1032A000910509F00CF441C08FEF8083CECFC1357A
:1032B000D1F181E0C23539F39BCF80915E02882342
:1032C00021F210925E0210925D0210925C02BDCF5C
:1032D000C53099F078F08BE191E0C63051F69093CB
:1032E0005D0280935C02B1CF8EE492E0F8CF8FE173
:1032F00091E0F5CF8EE191E0F2CF8CE191E0EFCF5C
:1033000010924E0284E180932001C0931F018CE350
:1033100080931E0188E080931C0188E280931B014A
:1033200094CF86EFB0CF8FEFAECF97FFBECF108296
:103330008CCFCF93DF93EB0186319C4511F50E9432
:10334000010C9A81992399F08A7A91E009F490E02E
:1033500090936002811109C089E20E94D90B0E94FA
:10336000420C80E0DF91CF91089585E3F6CF809104
:103370006002811104C089E20E94E10BF0CF85E375
:10338000FBCF81E0EFCF0F931F93CF93DF93C42F39
:10339000D22FFC0182818823C9F0409363020E94EE
:1033A0009A1D909362028093610280E28C0F8830B4
:1033B00040F4C77081E001C0880FCA95EAF70E9407
:1033C0005004DF91CF911F910F91089510916302E6
:1033D000141332C080916102909162020E94B21D6A
:1033E000883C910548F5C0E2CD0F1D17B9F080E289
:1033F000810F883040F4177081E001C0880F1A9562
:10340000EAF70E945704C83048F481E09D2F977076
:1034100001C0880F9A95EAF70E945004802F0E94FD
:103420004704C83070F6D77081E001C0880FDA9584
:10343000EAF70E945704C5CF80E28C0F883008F667
:10344000C77081E001C0880FCA95EAF7F2CF0F93E9
:103450009C01CB01243F4CE5340759F1A8F4293DE8
:10346000FCE53F0701F12A3D4CE53407D1F1283D49
:103470003C4591F406E221EE41EE68ED7CE50E94C8
:10348000C31980E00F910895263FFCE53F07E9F05E
:10349000B0F0273F3C45F9F0FC018281882339F1E7
:1034A00010926302EFCF07E225EE45EE69ED7CE571
:1034B000E6CF06E221EE40EE64EF7CE5E0CF07E2E6
:1034C00025EE44EE65EF7CE5DACF06E221EE42EE32
:1034D00066EF7CE5D4CF07E225EE46EE67EF7CE5AC
:1034E000CECF08E221E045EE6AED7CE5C8CF81E071
:1034F000C9CF8EE1489B02C08150E1F7489BFECFC7
:103500000895589880E28A95F1F7589A0895FC0139
:103510003BE03A95F1F798E020E080E031E040E1CF
:103520004A95F1F7880F489B02C08160232742E04B
:103530004A95F1F7000040E14A95F1F7915079F78B
:1035400090E19A95F1F799B132E03A95F1F70000E0
:1035500040E14A95F1F7917092272081920F908374
:103560000895A1E0B0E0E7EBFAE10C94122519828E
:103570008C017C01E60EF11C0E151F0541F481E063
:103580009981911180E02196E6E00C942E250E940D
:10359000791ACE0101960E94871AF80181938F0152
:1035A000EBCF509A589A08955098589AE89AE9E6BD
:1035B000F0E080818C7F808308956150770B91E0EB
:1035C00001C0990F6A95EAF720E031E0911108C037
:1035D000222391F0589A80E28A95F1F7589808953D
:1035E000492F482339F0589A232740E24A95F1F7AA
:1035F0009695ECCF5898F9CF5898EDCFFF920F934E
:103600001F93CF93DF93EC018C01060F111DC017A0
:10361000D10729F4CDB7DEB7E5E00C942F25F9905A
:103620000E94811A68E08F2D0E94DD1AF0CF1F9250
:103630000F920FB60F9211240F931F932F933F9366
:103640004F935F936F937F938F939F93AF93BF93AA
:10365000EF93FF93CF93DF930F92CDB7DEB719822D
:103660000E94791ACE0101960E94871A082F0695AA
:1036700006950695282F22952570902F9570290F75
:10368000922F937026952695920F9827977089818F
:10369000982B09F05CC0043008F059C080E18A958D
:1036A000F1F7589A509A82E08A95F1F700C058983D
:1036B00088E0089F80011124D801AD5FBE4F1696A7
:1036C000ED91FC9117973097A9F060919A01709154
:1036D0009B0114962D913C911597260F371F11963B
:1036E0008D919C911297680F791F13964C911397A7
:1036F0008C910995F801ED5FFE4F6381662351F0CF
:1037000020919A0130919B0184819581820F931FB2
:103710000E94FE1A0E94811A80E18A95F1F758985A
:103720005098589A80E18A95F1F7F801ED5FFE4FC5
:103730006081662351F020919A0130919B01818133
:103740009281820F931F0E94B11A0E94791A0F90E2
:10375000DF91CF91FF91EF91BF91AF919F918F91A9
:103760007F916F915F914F913F912F911F910F9199
:103770000F900FBE0F901F9018950F931F93CF932C
:10378000DF93EC0104970CF04CC0F894509A5898D1
:1037900085E08A95F1F700009C2F969595708C2F07
:1037A0008570980F892F83709695969523E0CC0F9E
:1037B000DD1F2A95E1F7980F8E01092B0E94811ACF
:1037C00000C068E0802F0E94DD1A80E18A95F1F741
:1037D0005098589A489B1EC087E090E048991CC0BA
:1037E000FE01ED5FFE4F63816623F9F020919A019F
:1037F00030919B0184819581820F931F0E94B11AA1
:10380000811113C0509A589A7894DF91CF911F91EB
:103810000F91089500C0DECF019729F4509A589A6D
:10382000789480E0F2CF00C0D9CF0E94791A80E26C
:103830008A95F1F75898509A80E18A95F1F7CD5F13
:10384000DE4F6881662351F020919A0130919B01EF
:1038500089819A81820F931F0E94FE1A0E94811A09
:10386000789481E0D2CF90939D0180939C0108953C
:1038700090936A028093690208950E945712811101
:1038800003C0809164020895E0916902F0916A0298
:10389000309729F00190F081E02D0995089580E09E
:1038A0000895E0916902F0916A02309721F0028058
:1038B000F381E02D09950895E0916902F0916A0283
:1038C000309739F022E0DC012C930480F581E02D63
:1038D00009950895209167023091680228173907E9
:1038E00071F09093680280936702E0916902F09111
:1038F0006A02309721F00680F781E02D099508953E
:1039000020916502309166022817390771F0909373
:10391000660280936502E0916902F0916A02309735
:1039200021F00084F185E02D099508959C012E5F1A
:103930003F4FAC01485F5F4F80E02417350709F423
:103940000895F90191919F019923B9F38F5FF5CF04
:10395000662349F0FC01329608962191261729F03A
:10396000E817F907D1F780E0089581E008959C01F8
:10397000FC0132969FEF80E04191461751F09F3F46
:1039800019F4411101C0982F8F5F8630A9F79F3F2E
:1039900009F40895290F311D97FD3A95F9016283C5
:1039A0000895FC01329608962191261303C0DF0189
:1039B00011971C92E817F907B9F708950E94B71CF0
:1039C00008950E94D11C0895029626E0FC011192F0
:1039D0002A95E9F7089546E050E00E94512521E03C
:1039E000892B09F420E0822F089508950E94F51C88
:1039F0000895811106C081E080936B020E94F61C3D
:103A0000089582E0F9CF83E080936B020E94F61C58
:103A100008950E94F91C089581E080936B020E9432
:103A2000F61C08950E940C1D0895089508950E94A3
:103A3000161D0895089508950E94151D0895CF93A9
:103A40000E941A1D0E94DE110E941B1DC0E08C2FD7
:103A50000E94B710811105C0CF5FCA30C1F7CF9166
:103A6000089581E0FCCF85B7806885BF85B7806801
:103A700085BF08951F921FB61F9211248F939F93A5
:103A8000AF93BF9380916C02811113C08091960215
:103A900090919702A0919802B09199024196A11D30
:103AA000B11D8093960290939702A0939802B093D1
:103AB0009902BF91AF919F918F911F901FBE1F9050
:103AC000189580919E02843031F10E94D4021092A8
:103AD0006C0288E190E020E40FB6F894A8958093FA
:103AE00060000FBE2093600083B7817F846083BF36
:103AF00083B7816083BF7894889583B78E7F83BFB7
:103B00000FB6F894A895809160008861809360005A
:103B1000109260000FBE08950E94C9060E94D9024B
:103B2000089582E084BD93E095BD9AEF97BD8093A0
:103B30006E0008952FB7F8948091960290919702A5
:103B4000A0919802B09199022FBF08952FB7F894D1
:103B500060919602709197028091980290919902DB
:103B60002FBF08959C014FB7F894809196029091D1
:103B70009702A0919802B09199024FBF821B930BBC
:103B80000895CF92DF92EF92FF922FB7F894C090F2
:103B90009602D0909702E0909802F09099022FBF81
:103BA000A7019601261B370B480B590BCA01B90117
:103BB000FF90EF90DF90CF90089578941F921FB6FA
:103BC0001F9211248F939F93AF93BF93809196027E
:103BD00090919702A0919802B09199020196A11D2F
:103BE000B11D8093960290939702A0939802B09390
:103BF0009902BF91AF919F918F911F901FBE1F900F
:103C0000189587E797E7909301088093000888E16B
:103C10009AE00FB6F894A895809360000FBE909339
:103C20006000FFCF88E19AE00FB6F894A8958093E2
:103C300060000FBE90936000FFCF809178020895DE
:103C400008959C0182E08093E9009FEF8091E80055
:103C5000915085FD06C085ED8A95F1F70000911120
:103C6000F5CF8091E80085FF0CC050E040E066E0B1
:103C700070E0C9010E9453208091E8008E77809304
:103C8000E8000895CF93DF93EC0181E08093E90091
:103C90008FEF9091E800815095FD06C095ED9A95C3
:103CA000F1F700008111F5CF8091E80085FF14C085
:103CB00050E040E068E070E0CE010E945320809127
:103CC000E8008E778093E80088E0FE01A0E7B2E08C
:103CD00001900D928A95E1F7DF91CF91089580933D
:103CE0006D0270936F0260936E0280919E02843029
:103CF00001F582E08093E9008FEF9091E800815018
:103D000095FD06C095ED9A95F1F700008111F5CF6C
:103D10008091E80085FF0DC050E040E063E070E076
:103D20008DE692E00E9453208091E8008E77809388
:103D3000E8000895BC0184E00E946F1E0895BC0154
:103D400083E00E946F1E089580919D02811109C039
:103D50000E94E3210E9440228091E20084608093CF
:103D6000E200089510929D0208950E940C1D08958E
:103D700060919A0281E0611101C080E00E94031D00
:103D8000089590919E0281E0943009F080E0609166
:103D90009A020E94091D089542E061EC81E00E94B0
:103DA0005F2142E261EC82E00E945F2190919E02DD
:103DB00081E0943009F080E060919A020E94F91C41
:103DC00008958091A002833009F461C030F48130FD
:103DD000D1F1823009F49EC008958A3009F48AC076
:103DE0008B3009F46FC0893009F050C080919F0278
:103DF000813209F04BC08091A3029091A4020297F6
:103E000008F044C08091E800877F8093E8008091AB
:103E1000E80082FF37C09091F3008091F200029792
:103E200031F48091F100813011F0863021F48091DD
:103E3000F100809378028091E8008B778093E8000E
:103E40000E94932123C080919F02813AF9F48091CE
:103E5000E800877F8093E8008091A3029091A402FC
:103E6000892B61F468E080E792E070E00E94A22074
:103E70008091E8008B778093E800089560E090E0FF
:103E800080E0F3CF80919E028111C1CF089580918F
:103E90009F02813AD9F78091A3029091A402892BC5
:103EA000A9F78091E800877F8093E8008091E8007F
:103EB00080FFFCCF80912D018093F1008091E8007C
:103EC0008E77BCCF80919F02813201F78091A3024F
:103ED0009091A402892BD1F68091E800877F80938E
:103EE000E8000E9493218091A10280932D010E94FD
:103EF000C906089580919F02813241F68091E800C1
:103F0000877F8093E8000E9493218091A202809392
:103F10007902089580919F02813A09F0B7CF80918C
:103F2000E800877F8093E8008091E80080FFFCCF65
:103F300080917902C1CF84B7877F84BF0FB6F89490
:103F4000A895809160008861809360001092600065
:103F50000FBE80E890E00FB6F894809361009093D4
:103F600061000FBE0E94121D08950E94E3210E946D
:103F70004022E2EEF0E080818460808378940E94A9
:103F8000BF24089581E291E00E94381C0895809139
:103F90009E02853031F480919E02853019F00E9496
:103FA0008C1D08950E94611D80919C02882399F3C5
:103FB0000E941F1D882379F30E943D200E94C9069C
:103FC000EACF08950E94E51F0895292F3327233053
:103FD000310519F168F42130310509F444C022306B
:103FE000310509F445C090E080E030E020E025C0D4
:103FF0002132310549F122323105A9F780E490E000
:1040000026EA33E061157105C1F08BE790E02BE201
:1040100033E06130710589F0E6CF99278130910551
:1040200081F0009729F00297F1F6E0EAF2E002C091
:10403000EAEDF2E0849190E09F01FA013183208360
:104040000895EAECF2E0F6CF89E090E020EF32E06C
:104050006115710591F389E090E029E033E061306A
:10406000710559F3C0CF82E190E029E133E0E5CF5B
:104070008BE390E02EED32E0E0CF80E189BD82E17C
:1040800089BD09B400FEFDCF8091D8008F7D80935B
:10409000D8008091E00082608093E0008091E00091
:1040A00081FDFCCF0895AF92BF92CF92DF92FF9235
:1040B0000F931F93CF93DF936C01EB018A010E9452
:1040C000B221F82E811123C00115110539F0F80134
:1040D00080819181C81BD90BC80ED91EB12CA12C8F
:1040E0002097A9F08091E80085FD22C08091E8002A
:1040F0008E778093E80001151105A1F0F801808109
:104100009181A80EB91EB182A08285E0F82E8F2D74
:10411000DF91CF911F910F91FF90DF90CF90BF90D3
:10412000AF9008950E94B2218823D1F2F82EEFCFEC
:10413000F60181916F018093F1002197FFEFAF1A93
:10414000BF0ACECFFC018091A5029091A6028617EE
:104150009707A0F06115710529F49091E8009E770A
:104160009093E80090E06115710551F4911108C039
:104170008091E80082FF34C080E00895BC01F2CF56
:1041800080919E028823C1F18530C1F18091E800C1
:1041900083FD30C08091E80082FDEACF8091E80085
:1041A00080FFE1CF8091F3002091F200382F61155C
:1041B000710519F02830310558F091E028303105AB
:1041C00009F090E02091E8002E772093E800CBCF13
:1041D00081918093F100615071092F5F3F4FE7CFCC
:1041E00080919E02882341F0853041F08091E80063
:1041F00083FFBECF81E0089582E0089583E00895B3
:10420000FC018091A5029091A60286179707A0F065
:104210006115710529F48091E8008E778093E8009C
:1042200090E06115710551F4911108C08091E8008A
:1042300082FF35C080E00895BC01F2CF80919E02DC
:104240008823C9F18530C9F18091E80083FD31C030
:104250008091E80082FDEACF8091E80080FFE1CF05
:104260008091F3002091F200382F6115710519F04B
:104270002830310558F091E02830310509F090E000
:104280008091E8008E778093E800CBCF8491809373
:10429000F1003196615071092F5F3F4FE6CF809159
:1042A0009E02882341F0853041F08091E80083FF31
:1042B000BDCF81E0089582E0089583E00895982FAE
:1042C000973028F08F708093E90081E008959093F3
:1042D000E900242F762F50E0981731F07091EC0010
:1042E0002091ED005091F00021FD02C09F5FE8CFCA
:1042F0003091EB003E7F3093EB003091ED003D7F3D
:104300003093ED003091EB0031603093EB0070930F
:10431000EC002093ED005093F0002091EE0027FD7B
:10432000E5CF80E0089580919F0287FF13C08091C0
:10433000E80082FF06C08091E8008B778093E80058
:1043400004C080919E028111F2CF089580919E0257
:104350008823D9F38091E80080FFF8CF8091E800AE
:104360008E77ECCF2091E4003091E50095E6A9012D
:104370002091EC00822F817020FF06C08091E80020
:1043800080FF06C080E008952091E80022FD1AC059
:1043900080919E02882389F0853089F08091EB001E
:1043A00085FD0FC02091E4003091E50042175307CE
:1043B000F9F29150E1F684E0089582E0089583E0F7
:1043C000089581E008950E9452220E945A22E0EE50
:1043D000F0E0808181608083E8EDF0E080818F777C
:1043E000808319BCA7EDB0E08C918E7F8C93808187
:1043F0008F7E808310929D0208950F931F93CF9319
:10440000DF930E9452220E945A22C8EDD0E0888198
:104410008F77888388818068888388818F7D88836F
:1044200019BC10929E0210929A0210929C02109255
:104430009B0200EE10E0F80180818B7F80838881F1
:104440008160888342E060E080E00E945F21E1EECD
:10445000F0E080818E7F8083E2EEF0E080818160F9
:104460008083808188608083F80180818E7F808353
:10447000888180618883DF91CF911F910F9108958A
:10448000E8EDF0E080818F7E8083E7EDF0E08081D1
:104490008160808384E082BF81E080939D020E94DE
:1044A000FD210895E8EDF0E080818E7F80831092F9
:1044B000E20008951092DA001092E10008951F9230
:1044C0000F920FB60F9211242F933F934F935F9348
:1044D0006F937F938F939F93AF93BF93EF93FF93CC
:1044E0008091E10082FF0BC08091E20082FF07C053
:1044F0008091E1008B7F8093E1000E94BE24809137
:10450000DA0080FF19C08091D80080FF15C080912B
:10451000DA008E7F8093DA008091D90080FF96C008
:1045200080E189BD82E189BD09B400FEFDCF81E053
:1045300080939E020E94A41E8091E10080FF19C01A
:104540008091E20080FF15C08091E2008E7F809311
:10455000E2008091E20080618093E2008091D800C7
:1045600080628093D80019BC85E080939E020E94EF
:10457000B81E8091E10084FF2BC08091E20084FF8F
:1045800027C080E189BD82E189BD89B5982F9170EE
:1045900080FFFBCF8091D8008F7D8093D8008091E1
:1045A000E1008F7E8093E1008091E2008F7E809316
:1045B000E2008091E20081608093E20080919A02A3
:1045C000882309F449C084E080939E020E94C11EA2
:1045D0008091E10083FF29C08091E20083FF25C024
:1045E0008091E100877F8093E10082E080939E02CA
:1045F00010929A028091E1008E7F8093E100809179
:10460000E2008E7F8093E2008091E20080618093DF
:10461000E20042E060E080E00E945F218091F000D3
:1046200088608093F0000E94B51EFF91EF91BF91CA
:10463000AF919F918F917F916F915F914F913F913A
:104640002F910F900FBE0F901F90189519BC1092CC
:104650009E020E94B21E70CF8091E30087FD93E01E
:1046600090939E02B3CF1F920F920FB60F92112418
:104670002F933F934F935F936F937F938F939F936A
:10468000AF93BF93CF93DF93EF93FF93D091E90064
:10469000DF708091EC00C82FC17080FDC0E81092DF
:1046A000E9008091F000877F8093F00078940E9469
:1046B00077231092E9008091F00088608093F000E9
:1046C000CD2BCF70C093E900FF91EF91DF91CF9197
:1046D000BF91AF919F918F917F916F915F914F911A
:1046E0003F912F910F900FBE0F901F901895AAE247
:1046F000B0E0EDE7F3E20C9415258FE992E020910C
:10470000F100FC012193CF01F2E0873A9F07B9F74E
:104710000E94E11E8091E80083FF1EC180919F02EC
:104720009091A0029A3008F017C1E92FF0E0E95407
:10473000FA4D0C940025803899F0823809F00CC1AC
:104740008091A3028F70873008F006C18093E90042
:104750008091EB0085FB882780F91092E90006C064
:1047600080919B0290919C02911182609091E8004F
:10477000977F9093E8008093F1001092F100809170
:10478000E8008E77E5C0882309F4D3C0823009F0B1
:10479000E3C08091A1028111D6C08091A3028F70E5
:1047A0002FEF280F263008F0D7C08093E900209122
:1047B000EB0020FFC8C0933031F48091EB008062A1
:1047C0008093EB00C0C09091EB0090619093EB0060
:1047D00021E030E001C0220F8A95EAF72093EA0039
:1047E0001092EA008091EB008860EACF8111B4C09A
:1047F0001091A1021F778091E3008078812B809334
:10480000E3008091E800877F8093E8000E94932175
:104810008091E80080FFFCCF8091E3008068809366
:10482000E30082E0111183E080939E0295C08058DE
:10483000823008F091C08091A1029091A2028C3D3B
:1048400023E09207A1F583E08A838AE289834FB748
:10485000F894DE01139620E03EE051E2E32FF0E011
:1048600050935700E49120FF03C0E295EF703F5F43
:10487000EF708E2F90E0EA30C0F0C7968D939D9335
:104880002F5F243159F74FBF8091E800877F8093D5
:10489000E8006AE270E0CE0101960E94A2208091B9
:1048A000E8008B778093E80057C0C096E7CF60910F
:1048B000A3027091A402AE014F5F5F4F0E94E21FFE
:1048C000BC01892B09F448C09091E800977F909330
:1048D000E80089819A810E940021E1CF8038E1F5CA
:1048E0008091E800877F8093E80080919A0280930E
:1048F000F10045CF811130C09091A102923060F556
:104900008091E800877F8093E80090939A020E944C
:10491000932180919A02882311F084E005C0809150
:10492000E30087FDFACF81E080939E020E94CC1EB7
:1049300013C08091A102813079F481E0933009F0B5
:1049400080E080939C021092E9008091E800877FCC
:104950008093E8000E9493218091E80083FF0AC0C1
:104960008091E800877F8093E8008091EB0080626F
:104970008093EB00AA96E3E00C9431250895CF9341
:1049800080919E028823A1F0C091E900CF709091A0
:10499000EC00892F817090FD80E8C82B1092E9000F
:1049A0008091E80083FD0E947723CF70C093E900D7
:1049B000CF9108950E94E32110929E020895E8EDA0
:1049C000F0E08081806180838AE18A95F1F700C000
:1049D0008091D9008170089597FB072E16F40094FA
:1049E00007D077FD09D00E943D2507FC05D03EF495
:1049F000909581959F4F0895709561957F4F08958B
:104A0000EE0FFF1F0590F491E02D09942F923F9235
:104A10004F925F926F927F928F929F92AF92BF92CE
:104A2000CF92DF92EF92FF920F931F93CF93DF937A
:104A3000CDB7DEB7CA1BDB0B0FB6F894DEBF0FBED7
:104A4000CDBF09942A88398848885F846E847D8424
:104A50008C849B84AA84B984C884DF80EE80FD8026
:104A60000C811B81AA81B981CE0FD11D0FB6F8949C
:104A7000DEBF0FBECDBFED010895AA1BBB1B51E1E8
:104A800007C0AA1FBB1FA617B70710F0A61BB70BBE
:104A9000881F991F5A95A9F780959095BC01CD0163
:104AA0000895FB01DC0104C08D910190801921F46F
:104AB00041505040C8F7881B990B0895FB01DC0159
:104AC00002C001900D9241505040D8F70895F999D5
:104AD000FECF92BD81BDF89A992780B50895A8E1CF
:104AE000B0E042E050E00C949B25262FF999FECFD0
:104AF00092BD81BDF89A019700B4021639F01FBA31
:104B000020BD0FB6F894FA9AF99A0FBE089503964D
:104B1000272F0E9476250E947525252F0E94762535
:104B2000242F0C9476250196272F0E9476250C942D
:104B30007525DC01CB01FC01F999FECF06C0F2BD61
:104B4000E1BDF89A319600B40D9241505040B8F74B
:104B50000895F894FFCF99049904CA04CA0457052C
:104B60007305F904F9047E050A06190619069B2344
:104B7000C323AC24C323AC24F6231724AC246E2413
:024B80007A2495
:104B82000D0201000000010000000000000005010C
:104B920000000004060000000000002808503C0746
:104BA200141D1E421E211E9F1E9A1E201E01E2007F
:104BB200E900EA00B500B600B700CD008301CC00E1
:104BC2008A01920194012102230224022502260273
:104BD20027022A02B300B4006F007000818283E2D0
:104BE20000E900EA00B500B600B700CD008301CCB1
:104BF200008A019201940121022302240225022645
:104C02000227022A02B300B4006F0070008182837F
:0C4C12006697C63435F731333236320273
:00000001FF
